:100000000C9434000C9451000C9451000C94510049
:100010000C9451000C9451000C9451000C9451001C
:100020000C9451000C9451000C9451000C9451000C
:100030000C9451000C9451000C9451000C945100FC
:100040000C9451000C9451000C9451000C945100EC
:100050000C9451000C9451000C9451000C945100DC
:100060000C9451000C94510011241FBECFEFD8E026
:10007000DEBFCDBF11E0A0E0B1E0E2E8F2E002C0F7
:1000800005900D92A236B107D9F721E0A2E6B1E0C2
:1000900001C01D92A43CB207E1F70E9430010C940C
:1000A0003F010C9400005B98E6E9F1E03197F1F72D
:1000B000000030E020E090E0AC01022E02C0559537
:1000C00047950A94E2F740FF12C05B9AE6E9F1E037
:1000D0003197F1F700002F5F3F4F2830310561F76E
:1000E0005B9A86E991E00197F1F7000008955B982B
:1000F000EDCF87E0E0E0F1E0A2E6B1E001900D9203
:100100008A95E1F787E0E7E0F1E0A9E6B1E0019048
:100110000D928A95E1F787E0EEE0F1E0A0E7B1E02B
:1001200001900D928A95E1F787E0E5E1F1E0A7E71C
:10013000B1E001900D928A95E1F787E0ECE1F1E002
:10014000AEE7B1E001900D928A95E1F787E0E3E236
:10015000F1E0A5E8B1E001900D928A95E1F787E022
:10016000EAE2F1E0ACE8B1E001900D928A95E1F7A6
:1001700087E0E1E3F1E0A3E9B1E001900D928A9517
:10018000E1F787E0E8E3F1E0AAE9B1E001900D9240
:100190008A95E1F787E0EFE3F1E0A1EAB1E00190B1
:1001A0000D928A95E1F787E0E6E4F1E0A8EAB1E094
:1001B00001900D928A95E1F787E0EDE4F1E0AFEA76
:1001C000B1E001900D928A95E1F787E0E4E5F1E076
:1001D000A6EBB1E001900D928A95E1F787E0EBE59F
:1001E000F1E0ADEBB1E001900D928A95E1F7089551
:1001F00097E0899FF0011124EE59FE4F96810190FE
:10020000F081E02D8081611104C090959823908346
:100210000895982BFCCF97E0899FF0011124EE59A7
:10022000FE4F96810280F381E02D8081611104C030
:100230009095982390830895982BFCCF97E0899F01
:10024000F0011124EE59FE4FA481B5819C91868165
:10025000982321E030E011F430E020E0C901089556
:1002600061E083E00E94F800539A85E40E94530005
:100270008FE39CE90197F1F700C00000F6CFF894F6
:02028000FFCFAE
:100282002A002B002900012A002B002900022A0043
:100292002B002900042A002B002900082A002B0029
:1002A2002900102A002B002900202A002B002900F7
:1002B200402A002B0029008024002500230001246D
:1002C2000025002300022400250023000424002529
:1002D2000023000824002500230010240025002309
:0202E2000020FA
:00000001FF
