:100000000C9434000C945E000C9451000C9451003C
:100010000C9451000C9451000C9451000C9451001C
:100020000C9451000C9451000C9451000C9451000C
:100030000C9451000C9451000C9451000C945100FC
:100040000C9451000C9451000C9451000C945100EC
:100050000C9451000C9451000C9451000C945100DC
:100060000C9451000C94510011241FBECFEFD8E026
:10007000DEBFCDBF11E0A0E0B1E0E6E5F9E002C0EF
:1000800005900D92A63AB107D9F723E0A6EAB1E0B0
:1000900001C01D92AA32B207E1F70E941B040C9422
:1000A000A9040C9400008AEA91E09093A701809340
:1000B000A6019093A9018093A80108951F920F9221
:1000C0000FB60F9211242F933F938F939F93EF932B
:1000D000FF93E8988FE692E00197F1F700C00000E7
:1000E00098E080E030E12BB123272BB986954A991F
:1000F0008068EFE9F1E03197F1F700C0000091501E
:1001000091F7E091A601F091A7019F012F5F3F4F6A
:100110003093A7012093A60180832A52324031F404
:100120008AEA91E09093A7018093A601E09AE89A69
:10013000FF91EF919F918F913F912F910F900FBE63
:100140000F901F90189552985A9A61E083E00E9490
:10015000760161E083E00E94930161E084E00E9407
:10016000760160E084E00E949301E9E6F0E010820D
:10017000808182608083E09AE89A0C945300809199
:10018000A6019091A70180589F4F2091A80130911E
:10019000A901821B930B60E870E00E94540408954B
:1001A000E091A801F091A9019F012F5F3F4F30938B
:1001B000A9012093A80180812A52324031F42AEA11
:1001C00031E03093A9012093A8010895CF93DF93E4
:1001D000C82F8A3019F48DE00E94E600E8985B98F9
:1001E0008FE991E00197F1F700C0000030E020E0D6
:1001F000D0E0AE01022E02C0559547950A94E2F771
:1002000040FF18C05B9A8FE991E00197F1F700C0B9
:1002100000002F5F3F4F2830310559F75B9A8FE977
:1002200091E00197F1F700C00000E09AE89ADF91B1
:10023000CF9108955B98E7CFCF93DF93EC0189913D
:10024000811103C0DF91CF9108950E94E600F7CF9E
:100250009C0150E040E060E472E48FE090E00E9496
:100260006804215031093093C5002093C40088E10F
:100270008093C10086E08093C20008959091C000F1
:1002800095FFFCCF8093C6008A3009F008958DE079
:10029000F5CF8091C00087FFFCCF8091C600089504
:1002A0008091C000881F8827881F0895CF93DF930F
:1002B000EC018991811103C0DF91CF9108950E94D3
:1002C0003E01F7CFCF93DF93EC010E9449018D30BF
:1002D00039F4188282EA91E0DF91CF910C945601B3
:1002E0008A30B9F389930E943E01EFCF97E0899F4E
:1002F000F0011124E050FF4F9681A081B18161305F
:1003000021F48C91892B8C9308950280F381E02D48
:100310002C91892F809582238C93623019F48081EF
:10032000892B8083089597E0899FF0011124E05084
:10033000FF4F96810280F381E02D8081611104C01E
:100340009095982390830895982BFCCF97E0899FF0
:10035000F0011124E050FF4FA481B5819C9186816A
:10036000982321E030E011F430E020E0C901089545
:10037000AF92BF92CF92DF92EF92FF920F931F93B3
:10038000CF93DF936C01FB01DC010D900020E9F7B6
:1003900011977D01E81AF90AD0E0C0E010E000E012
:1003A000BE01665D7D4F0E151F0574F0FB011082C6
:1003B000C701DF91CF911F910F91FF90EF90DF90D8
:1003C000CF90BF90AF900895D601A00FB11F8C9130
:1003D000853209F05BC00F5F1F4FD601A00FB11F20
:1003E0008C918F3609F44BC06CF48336A1F18436BE
:1003F000C1F1823641F55F01A2E0AA0EB11C42E0D4
:1004000050E035C0833759F0883711F08037D9F480
:100410005F0182E0A80EB11C40E150E028C09F01BE
:100420002E5F3F4F0190F081E02DDF010D90002005
:10043000E9F71197AD014E1B5F0B842F815030F40B
:10044000C40FD11DF9010F5F1F4FAACF9191DB019E
:100450009D93BD01F3CF21968081DB018C93329671
:10046000F2CF5F01B2E0AB0EB11C4AE050E08081F8
:1004700091810E946103C80FD91FF501E4CF5F018C
:10048000B2E0AB0EB11C48E050E0F1CF2196DB01A9
:100490008C93D9CF0F931F93CF93DF93CDB7DEB754
:1004A000BE01695F7F4FFB0181919191BF010E9465
:1004B000B8018C018AE292E00E945601C801DF91E6
:1004C000CF911F910F910895EF92FF920F931F9379
:1004D000CF93DF93CDB7DEB7FE013996019111912D
:1004E000BF016E5F7F4F8B859C850E94B8017C01A8
:1004F0000115110561F48AE292E00E945601C701DC
:10050000DF91CF911F910F91FF90EF9008950130EF
:100510001105A9F78AE292E00E941C01F0CFAC011C
:1005200021E030E090E080E0421753070CF408959A
:10053000820F931F2F5F3F4FF7CFFC01AF014F5F3B
:100540005F4F2081211105C09F01281B390BC90174
:100550000895FA01F3CFDC01FB019D91911103C0D5
:1005600081E090E0089581918917B9F390E080E0EF
:100570000895FC0101900020E9F7AF019C01415072
:100580005109C9012417350719F490E080E006C02D
:100590002F5F3F4FFC0170817613F3CF0895CF9307
:1005A000DF93FC0101900020E9F73197E81BF90B7C
:1005B000DC01EC01CE0FDF1FF695E795AF014A0F86
:1005C0005B1FA417B50719F4DF91CF9108958D91A2
:1005D0009A919D0121503109F90190838883F1CFCF
:1005E000FC0140814D3241F131E020E04B3209F015
:1005F00030E0E32FF22F41E050E0E80FF91F90E0E8
:1006000080E06AE00DC0689FD001699FB00D1124A1
:10061000022E000C330B20533109C9018A0F9B1F96
:1006200021912111F0CF9C01249FC001259F900DA5
:10063000349F900D11240895E1E0F0E04FEF5FEF5B
:10064000DCCFCF92DF92EF92FF920F931F93CF9365
:10065000DF93FB0110E000E097FF05C091958195C5
:10066000910901E010E07F01D0E0C0E02AE0C22E55
:10067000D12C9E012F5F3F4FB6010E945404805D34
:10068000D7018D937D01CB010097C9F4012B41F077
:100690002E0F3F1F8DE2D9018C939E012E5F3F4F9D
:1006A0002E0F3F1FD9011C92CF01DF91CF911F91D7
:1006B0000F91FF90EF90DF90CF900C94CF02E90163
:1006C000D8CFCF92DF92EF92FF920F931F93CF93E9
:1006D000DF93FB019A014830510521F02CF542309F
:1006E000510541F58F01D0E0C0E0B9010E944004FE
:1006F0002196DC01AE59BE4F8C91D8018D938D01AE
:10070000CB01009791F7DF01AC0FBD1F1C92CF0109
:100710000E94CF02CE01DF91CF911F910F91FF90E8
:10072000EF90DF90CF9008954A30510531F040317D
:100730005105C1F2D0E0C0E0EDCF10E000E097FF3E
:1007400005C091958195910901E010E07F0130E0AD
:1007500020E04AE0C42ED12CE9012196B6010E9486
:100760005404DC01AE59BE4F8C91D7018D937D01AD
:10077000CB01181619064CF0012B29F2CE0FDF1F02
:100780008DE28883E9012296BECF9E01E5CF8032BB
:1007900059F097EF980F923038F021E090E08D30CB
:1007A00009F020E0822F089581E090E0089520ED87
:1007B000280F81E090E0293010F090E080E008956B
:1007C000CF93DF93FC0101900020E9F73197E81BFC
:1007D000F90BDB01EC0129912D939E01281B390BAC
:1007E000E217F307C4F7DF91CF910895CF93DF931A
:1007F000DC01FC0101900020E9F73197E81BF90BBF
:100800009D01281B390B2E173F0728F0FA01108293
:10081000DF91CF9108952D91FB01EA01253229F056
:1008200028834F5F5F4FE5CF2993AE01BF01219130
:100830002111FACFDECFF89480E895E20E942801DA
:100840000E94A300789483E791E09F938F931F9277
:100850001F920E9464020F900F900F900F900E94C1
:100860005001882321F00E9449010E94E6000E9465
:10087000BF008823A1F30E94D0000E943E01EFCF69
:10088000AA1BBB1B51E107C0AA1FBB1FA617B707B6
:1008900010F0A61BB70B881F991F5A95A9F78095D2
:1008A0009095BC01CD01089597FB072E16F4009496
:1008B00007D077FD09D00E94400407FC05D03EF424
:1008C000909581959F4F0895709561957F4F0895FC
:1008D000052E97FB1EF400940E947F0457FD07D05D
:1008E0000E94870407FC03D04EF40C947F045095BB
:1008F0004095309521953F4F4F4F5F4F089590950C
:100900008095709561957F4F8F4F9F4F0895A1E21D
:100910001A2EAA1BBB1BFD010DC0AA1FBB1FEE1F79
:10092000FF1FA217B307E407F50720F0A21BB30BC4
:10093000E40BF50B661F771F881F991F1A9469F740
:1009400060957095809590959B01AC01BD01CF019C
:060950000895F894FFCFAA
:100956002A002B002900012A002B002900022A0068
:100966002B002900042A002B002900082A002B004E
:100976002900102A002B002900202A002B0029001C
:10098600402A002B00290080240025002300012492
:10099600002500230002240025002300042400254E
:1009A600002300082400250023001024002500232E
:1009B600002030313233343536373839616263647A
:1009C600656600546869732070726F6772616D2086
:1009D600746573747320616E2041726475696E6FFD
:1009E6002053572073657269616C20706F72742E84
:0609F6000A000D0A0000DA
:00000001FF
