:100000000C9435000C94E9020C945D000C945D0096
:100010000C945D000C945D000C945D000C945D00EC
:100020000C945D000C945D000C945D000C945D00DC
:100030000C945D000C945D000C945D000C945D00CC
:100040000C945D000C945D000C9418020C945D00FF
:100050000C945D000C945D000C945D000C945D00AC
:100060000C945D000C945D00550711241FBECFEF6A
:10007000D8E0DEBFCDBF12E0A0E0B1E0E0EAFFE0F3
:1000800002C005900D92AE33B107D9F722E0AEE37E
:10009000B2E001C01D92AC38B207E1F710E0C5E351
:1000A000D0E004C02197FE010E94C807C433D107E5
:1000B000C9F70E94A5060C94CE070C9400008AB1E3
:1000C00080668AB984B5806A84BD84B5836084BD46
:1000D00085B5877F85BD85B5836085BD17BC18BC98
:1000E000089560E875E280E492E00E9465018CE882
:1000F00091E09F938F9380E492E09F938F930E946F
:10010000F70161E089E00E942F0361E08AE00E942C
:100110002F0361E08BE00E942F0361E08CE00E94DE
:100120002F0360E080E10E942F0360E08FE00E94D7
:100130002F0360E08EE00E942F030F900F900F902E
:100140000F900C945F0060E089E00E944C0360E037
:100150008AE00E944C0360E08BE00E944C0360E068
:100160008CE00E944C0317BC18BC089561E089E044
:100170000E944C0360E08AE00E944C0361E08BE047
:100180000E944C0360E08CE00E944C0388E787BD2E
:1001900088BD089560E089E00E944C0360E08AE039
:1001A0000E944C0361E08BE00E944C0360E08CE015
:1001B0000E944C0317BC88E788BD089560E089E081
:1001C0000E944C0361E08AE00E944C0361E08BE0F6
:1001D0000E944C0360E08CE00E944C0388E787BDDE
:1001E00088BD089561E089E00E944C0360E08AE0E8
:1001F0000E944C0360E08BE00E944C0360E08CE0C6
:100200000E944C0388E787BD18BC089561E089E02F
:100210000E944C0360E08AE00E944C0360E08BE0A7
:100220000E944C0361E08CE00E944C0388E787BD8C
:1002300088BD08950C945F03FC0114821582089513
:10024000FC01858190E004962481821B910964E081
:1002500070E00E94730708951F93CF93DF93EC0122
:10026000162F0E942001833079F08D8190E0FE01ED
:10027000E80FF91F10830196837099278D8381E021
:10028000DF91CF911F91089580E0FACF0F931F93D4
:10029000CF93DF93EC018B010E942001882399F01A
:1002A000EC81EC0FFD2FF11D8081F80180838C81A2
:1002B00090E00196837099278C8381E0DF91CF9144
:1002C0001F910F91089580E0F9CFCF93DF93D82F3E
:1002D000C92F9B01F89450E040E060E074E284EFA5
:1002E00090E00E94870784E05595479537952795BC
:1002F0008A95D1F7215031093093C5002093C4006D
:10030000E1ECF0E088E1808380818068808386E092
:100310008093C200D0938802C09389027894DF91C1
:10032000CF910895CF93C62F6D3019F46AE00E94E3
:1003300092018091C00085FFFCCFC093C600CF9191
:100340000895CF93DF930F92CDB7DEB7BE016F5FF5
:100350007F4F8E5B9F4F0E94460189810F90DF91F6
:10036000CF9108958E5B9F4F0C9420010F931F93A4
:10037000CF93DF93EC018B01F80161918F0166232C
:1003800041F0E881F9810280F381E02DCE010995E9
:10039000F3CFDF91CF911F910F910895CF92DF920C
:1003A000EF92FF921F93CF93DF93EC017B0110E05C
:1003B0006C0182E4C80ED11CCE010E94A101F7019C
:1003C000E10FF11D8D3051F08A3041F01F5F8083C5
:1003D000C6010E9420018823D9F3EECF1082DF915D
:1003E000CF911F91FF90EF90DF90CF900895EF9203
:1003F000FF920F931F93CF93DF93CDB7DEB709859D
:100400001A85780182E0E80EF11CAE01435F5F4F70
:100410006B857C85C7010E947D03B701C8010E94DE
:10042000B601DF91CF911F910F91FF90EF9008954A
:100430001F920F920FB60F9211242F933F934F9359
:100440005F936F937F938F939F93AF93BF93EF933C
:10045000FF938091C1008F778093C1006091C600A7
:100460008091C10080688093C10080918802909142
:100470008902009721F08E5B9F4F0E942C01FF9113
:10048000EF91BF91AF919F918F917F916F915F910C
:100490004F913F912F910F900FBE0F901F90189585
:1004A000F894E9E6F0E0208122602083E09AE89A5F
:1004B000789480938A0290938B0208951F93CF9330
:1004C000DF93EC01162F6D3039F4E881F981028059
:1004D000F381E02D6AE00995E8988BB1C75BDF4FA7
:1004E000988121E030E001C0220F9A95EAF720952B
:1004F00028232BB98FE991E00197F1F700C00000A4
:1005000090E080E041E050E0612F110F770B2881EF
:10051000FA0102C0EE0FFF1F2A95E2F79F01FB01CF
:10052000082E02C0F595E7950A94E2F73BB1E0FF8B
:1005300022C0232B2BB9EFE9F1E03197F1F700C08E
:10054000000001968830910511F78BB1988121E068
:1005500030E001C0220F9A95EAF7822B8BB98FE920
:1005600091E00197F1F700C00000E09AE89ADF916E
:10057000CF911F91089520952323DCCF0F931F93D4
:10058000CF93DF93EC01162F042F81E392E0998340
:100590008883CE018E5B9F4F0E941C0189E392E00D
:1005A00099838883FE01E85BFF4F1083C75BDF4FB1
:1005B000088362E0812F0E942F0361E088810E94FE
:1005C0002F0361E08881DF91CF911F910F910C94EF
:1005D0004C031F920F920FB60F9211242F933F934B
:1005E0004F935F936F937F938F939F93AF93BF933B
:1005F000EF93FF93E8988FE692E00197F1F700C040
:10060000000028E060E0862F90E095958795682FA0
:100610004A9960688FE991E00197F1F700C0000006
:10062000215089F780918A0290918B02009721F0E6
:100630008E5B9F4F0E942C01E09AE89AFF91EF9108
:10064000BF91AF919F918F917F916F915F914F91EA
:100650003F912F910F900FBE0F901F90189597E02C
:10066000899FF0011124E050FF4F9681A081B18154
:10067000613021F48C91892B8C9308950280F38151
:10068000E02D2C91892F809582238C93623019F470
:100690008081892B8083089597E0899FF001112440
:1006A000E050FF4F96810280F381E02D808161113F
:1006B00004C09095982390830895982BFCCF97E0E1
:1006C000899FF0011124E050FF4FA481B5819C91D6
:1006D0008681982321E030E011F430E020E0C90168
:1006E00008959C012115310509F408958FE99FE0D3
:1006F0000197F1F700C00000F5CF6F927F928F92C3
:100700009F92AF92BF92CF92DF92EF92FF920F93A0
:100710001F93CF93DF93CDB7DEB7A0970FB6F894B2
:10072000DEBF0FBECDBF6C014B018A01FB01019002
:100730000020E9F731973F01661A770A90E080E0E0
:10074000B12CA12C7C01F601E80FF91FA614B70407
:10075000B4F01082A0960FB6F894DEBF0FBECDBFE6
:10076000DF91CF911F910F91FF90EF90DF90CF908D
:10077000BF90AF909F908F907F906F900895D4011D
:10078000AA0DBB1D2C91253209F0B7C02FEFA21A7C
:10079000B20AD401AA0DBB1D2C912F3609F447C013
:1007A00064F4233609F477C0243641F1223609F483
:1007B00058C0AFEFAA1ABA0AC5CF233709F48CC0C4
:1007C000283709F46FC02037A1F740E150E0BE019F
:1007D0006F5F7F4FF801819191918F010E94B30566
:1007E000FE013196C7012191222319F3D601AE0DE6
:1007F000BF1D2C932FEFE21AF20AF4CF4AE050E02B
:10080000BE016F5F7F4FD8018D919D918D010E9438
:10081000B305FE013196C7012191222351F2D60181
:10082000AE0DBF1D2C93BFEFEB1AFB0AF4CF48E0CF
:1008300050E0BE016F5F7F4FF801819191918F0170
:100840000E94B305FE013196C7012191222309F4CC
:10085000B0CFD601AE0DBF1D2C932FEFE21AF20AD6
:10086000F3CF42E050E0BE016F5F7F4FD8018D9122
:100870009D918D010E94B305FE013196C701219122
:10088000222309F496CFD601AE0DBF1D2C93BFEFE6
:10089000EB1AFB0AF3CF0196D8012C9120830E5F4F
:1008A0001F4F87CF40E150E0BE016F5F7F4FF801DF
:1008B000819191918F010E94B305FE013196C7018C
:1008C0002191222309F475CFD601AE0DBF1D2C93C3
:1008D0002FEFE21AF20AF3CFD801ED91FD918D01CD
:1008E000C7012191222309F464CFD601AE0DBF1DAB
:1008F0002C93BFEFEB1AFB0AF3CF2083019659CF5D
:100900000F931F93CF93DF93CDB7DEB7DA950FB672
:10091000F894DEBF0FBECDBFFE01E95FFE4F6191CF
:100920007191AF01CE0101960E947D038C01CE0131
:1009300001960E94F204C801D3950FB6F894DEBF69
:100940000FBECDBFDF91CF911F910F9108959C01F4
:1009500050E040E060E074E284EF90E00E9487079E
:1009600084E055954795379527958A95D1F721507D
:1009700031093093C5002093C40088E18093C10001
:1009800086E08093C20008959091C00095FFFCCF4F
:100990008093C6008A3009F008958DE0F5CF8091EC
:1009A000C00087FFFCCF8091C6000895CF930E94BE
:1009B000CF04C82F0E94C4048C2FCF910895CF93E9
:1009C000DF93EC010E94CF048D3031F418828AE06D
:1009D000DF91CF910C94C4048A30C1F389930E94B3
:1009E000C404F0CFCF93DF93EC018991811103C050
:1009F000DF91CF9108950E94C404F7CF8091C00089
:100A0000881F8827881F0895FC0190E080E02191CD
:100A1000211101C008950196FACF9C01C901F90185
:100A200040812F5F3F4F411103C090E080E002C042
:100A30004613F4CF0895CF93DF93D82FC92F0E9488
:100A40000405FC01AC0197FF02C04F5F5F4F559555
:100A50004795AD2FBC2FEA0FFB1F90E080E0841775
:100A600095071CF0DF91CF9108952D913291ED0102
:100A70002197388320830196F2CFFC0180818D324B
:100A800039F431962FEF3FEF50E040E06AE012C0BA
:100A90008B3209F4319621E030E0F6CF649FD0012B
:100AA000659FB00D1124082E000C990BC097AC0166
:100AB0004A0F5B1F819190ED980F9A3078F3429F17
:100AC000C001439F900D529F900D11240895CF9225
:100AD000DF92EF92FF920F931F93CF93DF93FB016F
:100AE000009761F480E380831182DF91CF911F91A1
:100AF0000F91FF90EF90DF90CF900895D0E0C0E08D
:100B000097FF05C0919581959109C1E0D0E08F01D3
:100B100030E020E04AE0C42ED12C79012F5F3F4F16
:100B2000B6010E947307805DD8018D938D01CB01C2
:100B3000009799F7CD2B41F02E0F3F1F8DE2D90181
:100B40008C9397012E5F3F4F2E0F3F1FD9011C92B0
:100B5000CF01DF91CF911F910F91FF90EF90DF9028
:100B6000CF900C941B05CF92DF92EF92FF920F93E0
:100B70001F93CF93DF93CDB7DEB761970FB6F8948D
:100B8000DEBF0FBECDBF7B018A0121E1E1E1F2E0D2
:100B9000DE01119601900D922A95E1F79A012250FB
:100BA00031092F30310588F0DB011C9261960FB6B8
:100BB000F894DEBF0FBECDBFDF91CF911F910F9193
:100BC000FF90EF90DF90CF90089597FF2AC04A30B2
:100BD000510551F5919581959109E1E0F0E06701AA
:100BE00030E020E0B8010E947307A9012F5F3F4F5A
:100BF000A1E0B0E0AC0FBD1FA80FB91F8C91D601CA
:100C00008D936D01CB011816190664F3EF2B91F14A
:100C10002E0D3F1D8DE2F90180839A012E5F3F4F1B
:100C200029C0F0E0E0E0DBCF4230510531F0083080
:100C3000110519F000311105A1F7E82F492F6701BF
:100C400030E020E08E2F942FB8010E945F072F5FC5
:100C50003F4FA1E0B0E0AC0FBD1FA80FB91F8C91B2
:100C6000D6018D936D018E2F942FE62F472F80177D
:100C7000910740F72E0D3F1DD9011C92C7016196C7
:100C80000FB6F894DEBF0FBECDBFDF91CF911F919D
:100C90000F91FF90EF90DF90CF900C941B05803266
:100CA00041F0895021E090E0823008F020E0822F6E
:100CB000089581E090E00895CF93DF93CDB7DEB73C
:100CC0002B970FB6F894DEBF0FBECDBF682F8BE019
:100CD000E2E2F2E0DE01119601900D928A95E1F7D1
:100CE000CE0101960E940D059C0181E090E0232B2E
:100CF00011F490E080E02B960FB6F894DEBF0FBEA3
:100D0000CDBFDF91CF910895FB01DC018D91811161
:100D100002C0108208958193F9CFCF93DF93DC0155
:100D2000FA018D91853259F4EB018991811109C045
:100D30008D91811108C01082DF91CF910895819328
:100D4000F0CF8193F2CF8193F3CF0E947100F12C09
:100D5000E12C85EB282E81E0382EC0E4D2E097EF1D
:100D6000492E91E0592E20EE622E21E0722E32E0C3
:100D7000832E912C80E10E945F038C018FE00E9402
:100D80005F036C018EE00E945F035C01BF928F9352
:100D9000DF92CF921F930F933F922F92DF93CF93C7
:100DA0000E94F7018DB79EB70A960FB6F8949EBFC2
:100DB0000FBE8DBF0115110501F5C114D10409F055
:100DC0004DC0A114B10409F05CC085EC91E09F9383
:100DD0008F93DF93CF930E94F7010E94A3002FEF20
:100DE00081EE94E0215080409040E1F700C0000087
:100DF0000F900F900F900F90BDCFCD2809F44BC0EE
:100E0000AB2809F44BC024E6E20EF11C84EFE8168F
:100E100081E0F80648F07F926F92DF93CF930E94B3
:100E2000F7010E94A300E4CF5F924F92DF93CF932C
:100E30000E94F7010E94B60010923F0210923E02FB
:100E40000F900F900F900F909FEF21EE84E0915044
:100E500020408040E1F700C000008CCFCA94CD282C
:100E6000E9F4AB28D9F40E94B600F12CE12CECCFC8
:100E7000AB28A1F40E94CA0010933F0200933E02E7
:100E8000F4CFAA94AB2851F40E94F20090923F0252
:100E900080923E02EACF0130110551F30E94B60064
:100EA00010923F0210923E02E0CF81E392E09093D5
:100EB00041028093400282E892E00C941C01AA1B3C
:100EC000BB1B51E107C0AA1FBB1FA617B70710F035
:100ED000A61BB70B881F991F5A95A9F78095909567
:100EE000BC01CD01089597FB072E16F4009407D09E
:100EF00077FD09D00E945F0707FC05D03EF490956E
:100F000081959F4F0895709561957F4F0895052EA7
:100F100097FB1EF400940E949E0757FD07D00E9485
:100F2000A60707FC03D04EF40C949E0750954095FD
:100F3000309521953F4F4F4F5F4F08959095809585
:100F4000709561957F4F8F4F9F4F0895A1E21A2EA4
:100F5000AA1BBB1BFD010DC0AA1FBB1FEE1FFF1F5D
:100F6000A217B307E407F50720F0A21BB30BE40BAD
:100F7000F50B661F771F881F991F1A9469F76095F4
:100F80007095809590959B01AC01BD01CF010895AE
:100F9000EE0FFF1F0590F491E02D0994F894FFCF18
:100FA0002A002B002900012A002B002900022A0018
:100FB0002B002900042A002B002900082A002B00FE
:100FC0002900102A002B002900202A002B002900CC
:100FD000402A002B00290080240025002300012442
:100FE00000250023000224002500230004240025FE
:100FF00000230008240025002300102400250023DE
:1010000000202700280026000127002800260002D3
:1010100027002800260004270028002600082700B3
:101020002800260010270028002600204C696E6545
:101030002054726163657220776974682044697214
:10104000656374696F6E204D656D6F72792053749E
:101050006172740D004C3A256420433A2564205295
:101060003A25640D00212120414952204445544530
:1010700043544544202D2053544F502021210D002E
:101080003D3D3D2053544F502061742043524F53F7
:1010900053203D3D3D0D005B43524F5353524F4152
:1010A000445D202D20474F20464F52574152440D5A
:1010B00000303132333435363738394142434445D4
:1010C00046003031323334353637383900000000CD
:0E10D00000650192010000000050025E020067
:00000001FF
